S01700005265616C5F74696D655F636C6F636B2E7372656310
S113000045C0000060C000005EC000005CC000008D
S11300105AC0000058C0000056C0000054C0000080
S113002052C0000050C000004EC000004CC0000090
S11300304AC0000048C0000046C0000044C00000A0
S113004042C0000040C000003EC000003CC00000B0
S11300503AC0000038C0000036C0000034C00000C0
S113006032C0000030C000002EC000002CC00000D0
S11300702AC0000028C0000026C0000024C00000E0
S113008022C0000020C000001EC0000011241FBEBA
S1130090CFEFD0E1DEBFCDBF11E0A0E0B1E0E2ECF4
S11300A0F1E000E00BBF02C007900D92A230B1074F
S11300B0D9F721E0A2E0B1E001C01D92A430B2075B
S11300C0E1F75CD07CC09CCF88E4809370000895F5
S11300D024EA10927400209374009091740097FFA6
S11300E0FCCF90917100987F983099F780937300BA
S11300F084E8809374008091740087FFFCCF089596
S11301008093730084E8809374008091740087FF67
S1130110FCCF089584EC809374008091740087FF71
S1130120FCCF80917300089584E98093740008954E
S11301301F93CF93DF93C82FD62F142FC5DF80EDE5
S1130140C7DF80E0DDDF812FDBDF8D2FD9DF8C2F50
S1130150D7DFDF91CF911F91E7CF80EDB9DF80E04A
S1130160CFDFE2DF81EDB4DFD5DF80930001D2DFA2
S113017080930201CFDF80930301D6CF12D041E0F8
S113018061E087E0D5DFE9DF8091000114D02FEF33
S113019080E792E0215080409040E1F700C00000E9
S11301A0F2CF1092900083E389B988E18AB986E09E
S11301B08093950008955D9BFECF8CB90895F894C3
S10501C0FFCF6B
S10501C2370000
S9030000FC
