S01700005265616C5F74696D655F636C6F636B2E7372656310
S113000045C0000060C000005EC000005CC000008D
S11300105AC0000058C0000056C0000054C0000080
S113002052C0000050C000004EC000004CC0000090
S11300304AC0000048C0000046C0000044C00000A0
S113004042C0000040C000003EC000003CC00000B0
S11300503AC0000038C0000036C0000034C00000C0
S113006032C0000030C000002EC000002CC00000D0
S11300702AC0000028C0000026C0000024C00000E0
S113008022C0000020C000001EC0000011241FBEBA
S1130090CFEFD0E1DEBFCDBF11E0A0E0B1E0ECECEA
S11300A0F1E000E00BBF02C007900D92A230B1074F
S11300B0D9F721E0A2E0B1E001C01D92A430B2075B
S11300C0E1F761D081C09CCF88E4809370000895EB
S11300D0E4E7F0E024EAA1E7B0E010822083908115
S11300E09923ECF79C91987F9830B9F7809373002B
S11300F084E880937400E4E7F0E080818823ECF7DF
S113010008958093730084E880937400E4E7F0E03A
S113011080818823ECF7089584EC80937400E4E7ED
S1130120F0E080818823ECF780917300089584E9DE
S11301308093740008951F93CF93DF93C82FD62F15
S1130140142FC2DF80EDC4DF80E0DBDF812FD9DF35
S11301508D2FD7DF8C2FD5DFEADFDF91CF911F9171
S1130160089580EDB5DF80E0CCDFE1DF81EDB0DF25
S1130170D3DF80930001D0DF80930201CDDF809331
S11301800301D5CF089512D040E069E581E0D3DFC3
S11301908FEF8ABB8BBBE5DF8091000111D080918A
S11301A002010ED0809103010BD0F5CF1092900084
S11301B083E389B988E18AB986E08093950008953C
S10F01C05D9BFECF8CB90895F894FFCF2E
S10501CC3700F6
S9030000FC
